:0400000000EFC0F05D
:100008001A611A611A611A611A611A611A611A6110
:100018001A611A611A611A611A611A611A611A6100
:100028001A611A611A611A611A611A611A611A61F0
:100038001A611A611A611A611A611A611A611A61E0
:100048001A611A611A611A611A611A611A611A61D0
:100058001A611A611A611A611A611A611A611A61C0
:100068001A611A611A611A611A611A611A611A61B0
:100078001A611A611A611A6142001A611A611A61D9
:100088001A611A611A611A611A611A611A611A6190
:100098001A611A611A611A6142001A611A611A61B9
:1000A8001A6182601A611A611A611A611A611A6109
:1000B8001A612A601A611A611A611A611A611A6151
:1000C8001A611A611A611A611A611A611A611A6150
:1000D8001A611A611A611A611A611A611A611A6140
:1000E80042001A611A611A611A611A611A611A6169
:1000F8001A611A611A611A611A611A611A611A6120
:02010800FF00F6
:02FFFE00000001
:020000040001F9
:10000000C34000C3AE180000C3381F00000000004A
:10001000C3271F0000000000C3321F0000000000C3
:10002000C900000000000000C9000000000000003E
:10003000C364180000000000C3F2180000000000B4
:10004000F33100AF2100802220AF2227AF2225AF5D
:100050003E493229AFAF212CAF061A772310FC217D
:10006000C0AE2240AF2100802242AF06083E2E21C2
:100070006CAF772310FCAF7706142158AFAF77230E
:1000800010FC3E493252AF3E4E3251AF2E00652237
:1000900053AFAF3257AF210080225AAF225EAF225A
:1000A00062AF2266AF226AAF7E3259AF325DAF32A5
:1000B00061AF3265AF3269AF3A46AFFE42C20E0160
:1000C00021901CCD581721CF1CCD5817CDB817CD76
:1000D0001218B728F1FE44CA7006FE47CA5713FE2D
:1000E00053CA1E14FE4CCA9414FE50CA6E15FE521A
:1000F000CA4616FE23CA1E01FE42CA3202FE54CA76
:10010000E702FE3F281021EC1CCD581718B83E42DC
:100110003246AFC3002021E51ACD581718A823CDC9
:100120001218B728E1FE4C2825CDC60138D879FE33
:1001300011D20601B7CA06013D1716005F216C01F6
:10014000195E2356EB5E23567AB328BAEBE9216C8D
:10015000015E235623D5DDE1DD7E00DDB6012809F1
:100160001313EBCD5817EB18E8C3C6008C01A80198
:10017000C401C401C401C401C401C401C401C40157
:10018000C401C401C401C401C401C4010020312E52
:10019000204241534943342E376220436F6C642020
:1001A00053746172740D0A000320322E20424153B1
:1001B0004943342E3762205761726D205374617247
:1001C000740D0A000000AF474FCD1218B7C8CDE438
:1001D00001D8F508F1CDF301D80816005FCD0A0269
:1001E000D82318E5B7280AFE30D8FE3A3003D630B7
:1001F000C937C9C5CB21CB10CB21CB10CB21CB101C
:10020000D1D8CD0A02D8CD0A02C9E5D5E109E5C1A8
:10021000E1C93A60AFB728082A62AF3E31CDCD02BE
:100220003A64AFB7CAC6002A66AF3E32CDCD02C32C
:10023000C60023CD1218B728D90160AFFE31280EB1
:100240000164AFFE322807FE43283EC3060108239F
:10025000CD1218B7285AFE2CC2060123CD1218C59C
:10026000CD2218E1DA0601CD7002DA0601C3C6001C
:100270007AFE80DA8702FEE0D287023E0177231AF7
:100280007723732372B7C937C923CD1218B728143F
:100290000160AFFE3128080164AFFE32C20601AF33
:1002A00002C3C600AF0160AF020164AF02C3C60063
:1002B0000AB7CAC600082A62AFFE3128032A66AF11
:1002C000CDCD02C3C60042502800293A00E5F521F1
:1002D000C602CD5817F1CD381F21CA02CD5817E1FB
:1002E000CD6117CDA117C9E52E0026002253AF2AF4
:1002F00042AF2255AFAF3257AFE123CD1218CD2216
:1003000018D2AD03CD12187EB7CAD603FE2CCABED2
:1003100003FE50284EFE4DC2060123CD1218215572
:1003200003FE492810215B03FE532809B7C20601CA
:100330003A52AF18E93252AFE5214603CD5817E1E2
:10034000CD5817C3C600544D206D6F64653A3C43C9
:10035000414C4C2000494E3E0D0A00534B49503E43
:100360000D0A0023CD1218B720053A51AF1809FE27
:100370004FC2060123CD121821A203FE4E280821E8
:10038000A703FE46C206013251AFE5219803CD58BE
:1003900017E1CD5817C3C6005450206D6F64653AFD
:1003A00020004F4E0D0A004F46460D0A00ED5355F2
:1003B000AFCD1218B7281FFE2C2803C3060123CD8A
:1003C0001218B7CA0601FE2D2811CDC601DA0601A2
:1003D000ED4353AF181B01010018F523CD1218FE91
:1003E00031C2060123CD1218B7C206013E013257B1
:1003F000AF2A55AF7E010800218E05EDB120130E06
:1004000001CD5705DA16050E02CD3705DA1605C3FC
:100410001305010500219605EDB120190E012A559D
:10042000AFCD2A05CD6405DA16050E02CD3C05DAFE
:100430001605C31305010800219B05EDB120040E2C
:1004400001181301080021A305EDB1201A0E013A8D
:1004500052AFFE532808CD4B05DA16050E02CD41EA
:1004600005DA1605C31305FEC9200B0E01CD57058D
:10047000DA1605C3130501080021AB05EDB1200B09
:100480000E01CD3705DA1605C31305FEED20132343
:100490007EFE452804FE4D20090E01CD5705387615
:1004A00018712A55AF7EFEE9200C2A32AF0E01CD1D
:1004B00064053862185DFEDD200B237EFEE9200511
:1004C0002A3CAF18E82A55AF7EFEFD200B237EFEA6
:1004D000E920052A3EAF18D52A55AF7EFE18200C1C
:1004E0000E01CD2A05CD6405382C1827FEC320093E
:1004F0000E01CD4B05381F181AFECDC2B3050E01F3
:100500003A52AFFE532807CD4B05380A1805CD41A6
:10051000053803C39A13212005CD5817C3C600FF21
:10052000416472204552520D0A00235E2316FFCB10
:100530007B2002160019C92A55AF180A2A55AF1890
:10054000042A55AF232323CD6405C92A55AF235E62
:100550002356EBCD6405C9ED5B40AF1A6F131A67E4
:10056000CD6405C97CFE803823FEAF301F79FE01C3
:10057000200D1158AF12225AAF7E3259AF180B110D
:100580005CAF12225EAF7E325DAFAFC937C9C0C863
:10059000D0D8E0E8F0F81020283038C2CAD2DAE229
:1005A000EAF2FAC4CCD4DCE4ECF4FCC7CFD7DFE742
:1005B000EFF7FF011200214C06EDB1CA2706010832
:1005C00000215E06EDB1CA32062A55AFFECB285790
:1005D000FEDD280AFEED2828FEFD2802183E237EB7
:1005E000FECB2859FE212855FE222851FE2A284DEF
:1005F000FE362849010A00216606EDB12829183285
:10060000237EFE432837FE4B2833FE53282FFE5B04
:10061000282BFE732827FE7B2823180B0E01CD37CD
:1006200005DA1605C313050E01CD3C05DA1605C320
:1006300013050E01CD4105DA1605C313050E012A77
:1006400055AF23CD4405DA1605C31305060E161E55
:10065000262E363EC6CEDED6E6EEF6FEDBD3011102
:10066000213122322A3A09192939232BE5E1E3F90C
:10067000237EFE49CA7807CD1218CD22183806ED20
:100680005320AF1810E52A20AF018000092222AFC5
:10069000E17EB7282BCD12187EFE2C280DB7C2069E
:1006A00001218000192222AF181623CD1218CD2265
:1006B00018DA0601CD1218B7C2060113ED5322AFA6
:1006C0002A20AF3EF0A56FAF3224AFE5CDF206E1B0
:1006D00001100009CD321F20103A24AFFE0238EB82
:1006E0002A22AF2220AFC3C6002220AFCD271FC3CE
:1006F000C600CD6117E521F41CCD5817E1DD2100BE
:10070000AF0610CD2C0710FB21F71CCD5817210088
:10071000AF06107E23FE203809FE7F3005CD381F3E
:1007200018053E2ECD381F10EAC3A1173E20CD3844
:100730001F3A24AFB720203A20AFBD20063A21AFA0
:10074000BC280F3E20CD381FCD381FDD770023DDBC
:1007500023C93E013224AF3A24AFFE0120E57EDDFD
:100760007700CD661723DD233A22AFBDC03A23AF11
:10077000BCC03E023224AFC923CD1218CD2218309E
:1007800014CD12187EB7201326002E0A7D3277AFC3
:100790002275AF1833ED5378AF18E6FE2CC2060170
:1007A00023CD1218FE5320123E013277AF23CDC65F
:1007B00001DA0601ED4375AF180ECD2218DA0601F5
:1007C000ED5375AFAF3277AFCD321F2806CD271F5F
:1007D000C3C600CD5708CD1C08217FAFCD58173AAE
:1007E00077AFB7200E2A75AFED4B78AFED4230D81A
:1007F000C3C6002A75AF2B2275AF7CB520CAC3C60D
:10080000002278AFD5CD5708CD1C08D1217FAF018C
:100810002A00EDB0ED5B78AF3A7EAFC9217FAFED36
:100820005B78AFCDF70FCD8710CD871006043A7EE9
:10083000AF4F1A13D55FCDFF0FCD8710D105280F0D
:100840000D20EFCD8710CD8710CD87100520F4CD7A
:100850008710ED5378AFC93E01327EAF115611CDEE
:100860001B10219AAFCD47102A78AF7E010D0021D1
:100870009A10EDB1201221A912CD9D0FC31B10E6D5
:10088000380F0F0F4F0600C9FE0A2819FE1A282339
:10089000FE022824FE122829FEF9202A111C1FCD51
:1008A0006E10C3411011DB1ED5CD6B10D1CD55108C
:1008B000C3471011E21E18F011DB1ECD5D10C336C8
:1008C0001011E21E18F5FE40DA5E09FE803028FEA7
:1008D000762006115911C31B10CD7F08CD9A0F2128
:1008E0009AAFCD6E10ED5B78AF1AE6074F0600E5C4
:1008F000CD9A0FE1C34410FE883008CD1810CD6B9F
:100900001018E2FE90300B116211CD1B10CD6B1050
:1009100018D3FE983008116611CD1B1018C7FEA021
:10092000300B116A11CD1B10CD6B1018B8FEA8301A
:1009300008116E11CD1B1018ACFEB03008117211E9
:10094000CD1B1018A0FEB83008117611CD1B101861
:1009500094FEC0D2DA09117911CD1B101887010855
:100960000021A710EDB1200EF5117C11CD1B10F167
:10097000CD7F08C3EF0801080021AF10EDB1200AB8
:10098000F5118011CD1B10F118E601040021B710FC
:10099000EDB1200F117C11CD1B10219912CD910FBB
:1009A000C3471001040021BB10EDB1200F118011CD
:1009B000CD1B10219912CD910FC3471001040021C6
:1009C000BF10EDB12046CD181011E91ECD6E10E517
:1009D000219912CD9D0FE1C3441001040021C310E1
:1009E000EDB1200F118411CD1B1021A112CD910F5B
:1009F000C3471001040021C710EDB1200F11881169
:100A0000CD1B1021A112CD910FC34710FE0828174E
:100A1000FEE32821FEEB202511E21ECD6E10CD4114
:100A200010118D11C31B10113711CD6E10113A1119
:100A3000CD441018EC111C1FCD5D1018E1FEE9200B
:100A40000F114211CD1B1011E91ECD5210C34710DA
:100A5000010800218E05EDB1200F113E11CD1B10B4
:100A6000218112CD910FC3471001080021AB05ED84
:100A7000B12017115211CD1B10792FCB27CB27CBCB
:100A800027E6385F219AAFC3A60FF53E02327EAF4C
:100A9000F1010800214C06EDB12016CD7F08CD9A5A
:100AA0000FCD6E10ED5B78AF131A5FCDE90FC34722
:100AB00010010A00215406EDB1C2050BC521C31275
:100AC000CD9D0FCD1B10C179FE012814B7281AFE49
:100AD000073803CD6B10ED5B78AF131A5FC3A60F19
:100AE000CD6B10CDF50AC34710219AAFCDF50ACDD5
:100AF0009310C33610CD7E10ED5B78AF131A5FCD27
:100B0000E90FC38210FE1020051148111807FE18C6
:100B1000200C114511CD1B10219AAFC3CA0F01043F
:100B200000219705EDB12012114511CD1B10219127
:100B300012CD910FCD9310C3CA0FF53E03327EAF95
:100B4000F1010400215E06EDB1C25B0B21D712CD8D
:100B50009D0FCD6E10CD830BC3AC0FFE222812FE6D
:100B6000322814FE2A2826FE3AC29C0BCD6B1018A0
:100B700022CD7D0BC34110CD7D0BC33610CD830B31
:100B8000C3B20FE52A78AF235E2356E1C911E91EEF
:100B9000CD6E10CD830BCDC10FC34710FEC320080F
:100BA000114211CD1B1018ADFECD2008114D11CDF5
:100BB0001B1018A1010800219B05EDB12011114265
:100BC00011CD1B10218112CD910FCD9310188601EC
:100BD000080021A305EDB12005114D1118E32A7875
:100BE000AF23F53E02327EAFF1FECBC2A40C7E21D4
:100BF0009AAFFE08DA2D0CFE10DA360CFE18DA3F3A
:100C00000CFE20DA480CFE28DA510CFE30DA5A0CC1
:100C1000FE38DA7E0CFE40DA630CFE80DA6C0CFEE5
:100C2000C0DA750CCD840C114C12C31B10CD890C8D
:100C300011C711C31B10CD890C11CB11C31B10CDD3
:100C4000890C11CF11C31B10CD890C11D211C31BFC
:100C500010CD890C11D511C31B10CD890C11D911E0
:100C6000C31B10CD890C11DD11C31B10CD840C11D9
:100C7000E111C31B10CD840C11E511C31B101150E1
:100C800012C31B10F5CD960CF1E6074F0600E5CD1B
:100C90009A0FE1C34410E6380F0F0F473E30B0778C
:100CA00023C39310FEDDC24A0E11161FED537AAF17
:100CB00011F312ED537CAF7EFEE3CAFE0CFEE9CACF
:100CC000EC0CFEF9CA0D0D010400216606EDB1CA57
:100CD000160D010400216A06EDB1C22B0D21EB12A5
:100CE000CD9D0FCD1B10219AAFC33B10ED5B7AAFAA
:100CF000D5114211CD1B10D1CD5210C34710118D0B
:100D000011CD1B10111C1FCD5D10C33B10111C1FFA
:100D1000CD6E10C33B10CD1810ED5B7AAFCD6E10C9
:100D2000E52A7CAFCD9D0FE1C34410F53E03327E32
:100D3000AFF1010E0021CB10EDB1CA6A0DFE86CADB
:100D4000950DFE8ECAA00DFE9ECAA50D01070021BD
:100D5000D910EDB1C2AA0D210313CD9D0FCD1B10EB
:100D6000ED5B7AAF219AAFC3610F79FE07D2820D96
:100D7000ED5B7AAFCD580FE5211113CD9D0FE1C387
:100D80004410D6074F211113CD9D0FCD6E10ED5B92
:100D90007AAFC3610F115E11CD1B10CD6B1018EE31
:100DA00011621118F3116A1118EEF53E04327EAF8C
:100DB000F1FE21CAD00DFE22CADD0DFE2ACAE60DC3
:100DC000FE36C2F60DED5B7AAFCD580F5AC3A60FB3
:100DD000ED5B7AAFCD6E10CD860FC3AC0FCD860F15
:100DE000CDB20FC33B10ED5B7AAFCD6E10CD860F49
:100DF000CDC10FC34710FECBC27E0CCD860F7A014A
:100E0000070021E010EDB1C2160E214913CD9D0F50
:100E1000CD1B10C3600D01180021E710EDB1C27E9B
:100E20000CFE80DA3A0EFEC0DA420E114C12CD1BD7
:100E300010219AAFCD960CC38E0D11E111CD1B1070
:100E400018EF11E511CD1B1018E7FEEDC2470F7E1C
:100E500001380021FF10EDB1C27E0C79FE06DA28C0
:100E60000FFE1BDA1A0FFE1EDA070FCAE70EFE1F6F
:100E7000CAF00EFE20CAF90EFE21CA020FFE26DAC3
:100E8000D60EFE2ADAC00EFE31DAA50E11C411CD3F
:100E90001B1079D6314F211113CD9D0FCD6E10113E
:100EA0005412C3441011C011CD1B10115412CD6E39
:100EB0001079D62A4FE5211113CD9D0FE1C34410BF
:100EC000116A11CD1B1011E91ECD6E1079D6264F77
:100ED000E521991218E3116211CD1B1011E91ECD05
:100EE0006E1079D62218E8CD6B1011241FC3441060
:100EF000CD6B1011221FC3441011241FCD6E10C3DF
:100F0000361011221F18F511ED11CD1B103E1D9149
:100F1000C630219AAF7723C34710D6064F0600216B
:100F20001F13CD9D0FC31B103E04327EAFC5792128
:100F3000DF12CD9D0FC179FE03DAEA0DD5CD860F04
:100F4000CDB20FD1C3441011191FED537AAF11FB6D
:100F500012ED537CAFC3B70C219AAFCD670FC3938B
:100F600010CD670FC34710CD7E10CD7610CD860F04
:100F70007BFE80380CED445FCD8F10CDE90FC3822E
:100F800010CD8B1018F5E52A78AF23235E2356E1A8
:100F9000C9CD9D0F219AAFC37610217112CB21CB01
:100FA00010095E2356C9CDE90FC34710CDD80FC332
:100FB0004710219AAFCD7E10CDD80FCD8210C393AC
:100FC00010CD7E10CDD80FC38210E52A78AFCD2A80
:100FD00005EBE1CDD80F186F7AFEA038043E3077CC
:100FE00023CDF70F3E48C384107BFEA038043E306B
:100FF0007723CDFF0F18ED7ACD08107ACD0C107B3A
:10100000CD08107BCD0C10C90F0F0F0FE60FF63077
:10101000FE3A3870C607186C115E11F5C506082136
:1010200092AF1AB728067723130518F63E207723C8
:101030000520FBC1F1C911D91E1809ED5B7AAF1863
:101040000311E91ECD76103E0D77233E0A7723AFBC
:1010500077C9219AAFCD7E10CD76101825219AAF91
:10106000CD7E10CD7610CD8210182811D91E219A70
:10107000AFCD7610181D1A77B7C8231318F83E287D
:1010800018023E297723C93E2018F93E2B18F53E59
:101090002D18F13E2CCD841018ED00070F171F27D7
:1010A0002F373FC9D9F3FB040C141C242C343C0506
:1010B0000D151D252D353D031323330B1B2B3B092C
:1010C000192939C1D1E1F1C5D5E5F5464E565E661F
:1010D0006E7E7071727374757796A6AEB6BE343537
:1010E000060E161E262E3E464E565E666E767E8690
:1010F0008E969EA6AEB6BEC6CED6DEE6EEF6FE4016
:101100004850586068784149515961697942526242
:10111000724A5A6A7A474F575F46565E44454D6752
:101120006FA0A1A2A3A8A9AAABB0B1B2B3B8B9BA33
:10113000BB4353734B5B7B414600414627005245FE
:1011400054004A50004A5200444A4E5A0043414C0F
:101150004C00525354004C440048414C540041440C
:101160004400414443005355420053424300414E22
:101170004400584F52004F5200435000494E430024
:1011800044454300504F50005055534800455800C7
:10119000455858004E4F5000524C43410052524364
:1011A0004100524C410052524100444141004350E1
:1011B0004C00534346004343460044490045490020
:1011C0004F555400494E00524C4300525243005276
:1011D0004C00525200534C41005352410053524C68
:1011E0000042495400524553004E454700494D00C6
:1011F00052524400524C44004C4449004350490070
:10120000494E49004F555449004C44440043504412
:1012100000494E44004F555444004C444952004349
:1012200050495200494E4952004F544952004C44D3
:101230004452004350445200494E4452004F5444DB
:10124000520052455449005245544E0053455400F3
:101250003F3F3F002843290028484C29004E5A00B0
:101260005A004E43004300504F0050450050004D7F
:1012700000DE1EE01EE51EE71EEC1EEE1E5812D913
:101280001E6F126D126A1267126512621260125D91
:10129000126512621260125D121C1FE91EE21EDB53
:1012A0001E3711E91EE21EDB1EBD11BA1190113E60
:1012B00011B611B211AE11AA11A611A2119D119869
:1012C000119411C011C4117911761172116E116649
:1012D000116A1162115E111C1FE91EE21EDB1E1C49
:1012E0001FE21EDB1E1C1FE21EDB1E841188118004
:1012F000117C111C1F161FE21EDB1E1C1F191FE292
:101300001EDB1E80117C117911761172116E11662F
:1013100011D91EEE1EEC1EE71EE51EE01EDE1E3D70
:1013200012381233122E12291224121F121A1215F9
:101330001211120D12091204120012FC11F811F40C
:1013400011F01142124712E911DD11D911D511D254
:1013500011CF11CB11C711ED5B42AFED534FAF234E
:10136000CD1218CD22183003B7280A7AFEE0D20633
:1013700001ED534FAFCD12187EB72818FE2CC206D0
:101380000123CD1218CD2218DA06012168AFCD70E5
:1013900002DA06012A4FAF2242AF3A58AFB7281AF5
:1013A0002A55AF2242AF2158AF115AAFCD121421A6
:1013B0005CAF115EAFCD1214181B2160AF1162AF8C
:1013C000CD12142164AF1166AFCD12142168AF1194
:1013D0006AAFCD12142A40AFF92A42AFE5DD2A3CAC
:1013E000AFFD2A3EAF2A34AFE5ED4B36AFED5B38AB
:1013F000AF2A3AAFD9F1082A2CAFE5ED4B2EAFED6D
:101400005B30AF2A32AF3A44AFED473A45AFED4FCC
:10141000F1C97EB7C81A4F131A473EFF02C923CD40
:101420001218CD2218DA0601CD12187EB7C20601B5
:1014300079B72004ED5B27AFEBCD6117E521F71CF1
:10144000CD5817E17EE5CD66173E20CD381FCDB8CB
:1014500017CD12187EB72007E1232227AF18DAFE36
:101460002D2007E12B2227AF18CFFE2E2007E122E7
:1014700027AFC3C600CD2218B7E1CA0601732322E5
:1014800027AFED5B62AF1A3261AFED5B66AF1A3228
:1014900065AF18A5AF3260AF3264AF23CD1218CD5F
:1014A0002218CD12187EB7C2060179B720031100A9
:1014B00000CD271FFE532861FE3A280DFE0D28F1AE
:1014C000FE0A28EDCD271F18F33E2ECD381FCD7D07
:1014D000174F47CD7D1767814FCD7D176F814F190E
:1014E000CD7D17322AAF814F78B72814CD7D17F5FF
:1014F000814F3A2AAFB72005F177231801F110EC9C
:10150000CD7D1781200A3A2AAFB7CAC414C3C600DA
:1015100021D21CCD5817C3C600CD271F322AAFCD0C
:101520007D17474FCD7D1767814FCD7D176F814F59
:10153000190505052815CD7D17F5814F3A2AAFFE0F
:10154000312005F177231801F110EBCD7D1781FED5
:10155000FF20123A2AAFFE372811FE38280DFE3937
:101560002809C3C41421DF1CCD5817C3C600237E2D
:10157000FE492804FE532004233229AFCD1218CD92
:101580002218B7281CD5DDE1CD12187EFE2C2011C3
:1015900023CD1218CD2218B72807CD12187EB728F0
:1015A00003C30601DDE5E1EB23B7ED52CDCC157C9D
:1015B000B520F93A29AFFE49200921FB1CCD581767
:1015C000C3C60021091DCD5817C3C6000E107CB735
:1015D00020057DB930014F0600B7ED42413A29AFF1
:1015E000FE4920303E3ACD381F78CD6617487ACD77
:1015F00066177A814F7BCD66177B814FAFCD66171B
:101600001AF5CD6617F1814F1310F579ED44CD66CB
:1016100017C3A1173E53CD381F3E31CD381F78C6B2
:10162000034FCD66177ACD66177A814F7BCD66174B
:101630007B814F1AF5CD6617F1814F1310F5792F85
:10164000CD6617C3A11723CD1218B72006CDCC162F
:10165000C3C600EB21BF1DBE280D4F237EB72869EE
:10166000790105000918F0237EFE0F2009234E237F
:101670006669131A18E1B728504E235E2356D52306
:101680007E23666FCD58173E3DCD381F79E607FEA5
:10169000012008E17EE5CD6617180CE1E5237ECD3B
:1016A00066172B7ECD66173E20CD381FC5CDB817E7
:1016B000CD1218CD2218B7280DC1E179FE01200303
:1016C000731803732372C3C600C3060121161D5E7F
:1016D0002356237AB3CAA117D5EBCD5817EBD13EC9
:1016E0001DBA20073E81BB200218293E1DBA2005E5
:1016F0003EA8BB281F5E2356237E23EBFE01200756
:101700007ECD6617EB18C8237ECD66172B7ECD667F
:1017100017EB18BB5E2356231AD5E5216CAF0148A1
:1017200017115017F5F1CB273006F50A77F1180499
:10173000F51A77F1031323F57EB720E9F1216CAF99
:10174000CD5817E1D1231887535A2E482E504E43B7
:101750002E2E2E2E2E2E2E2E7EA7C8CD381F2318CD
:10176000F77CCD66177DF51F1F1F1FCD6F17F1E6A4
:101770000FC630FE3ADA381FC607C3381FAFCD8513
:101780001707070707C54FCD271FFE303811FE3A50
:10179000380AFE413809FE473005D607D630B1C1B8
:1017A000C93E0DCD381F3E0AC3381FE521B417CD01
:1017B0005817E1C91B5B32002100AFC5E50600CD1B
:1017C000271FFE0D2844FE0A2840FE082825FE7F1C
:1017D0002821FE2038E9FE8030E54F78FE1F30DFFB
:1017E0000479CD381FFE613806FE7B3002E6DF77D4
:1017F0002318CC78A728C8052B3E08CD381F3E20DB
:10180000CD381F3E08CD381F18B5CDA1173600E1E1
:10181000C1C97EFE20C02318F9FE61D8FE7BD0C668
:10182000E0C90E001100007EFE30382CFE3A380A66
:10183000FE413824FE473020D607D6301717171739
:1018400017CB13CB1217CB13CB1217CB13CB12170B
:10185000CB13CB12230C18CF79B72806FE05300224
:10186000B7C937C9E5C52181180600090901AB18B8
:10187000B7E5ED42E1300746236668C1E3C9C1E13F
:10188000C9AB18AE18381F5817271F321FF0186140
:101890001766176F17AB17BB171218A11719182265
:1018A00018271A5D1AD31A7D180108C340003100A9
:1018B000AF3A68AFB728062169AFCDDF193A58AF04
:1018C000B728062159AFCDDF193A5CAFB7280621FA
:1018D0005DAFCDDF193A64AFB728062165AFCDEB18
:1018E000193A60AFB728062161AFCDEB19C3B5191E
:1018F000AFC9F5ED5F3245AFED573244AF2232AF9D
:10190000ED5330AFED432EAFE1222CAF08F5D922D5
:101910003AAFED5338AFED4336AFE12234AFDD22BD
:101920003CAFFD223EAFE12B2242AFED7340AF3121
:1019300000AFAF575F3A68AFB7280911151A216990
:10194000AFCDDF193A64AFB7280911151A2165AF79
:10195000CDEB193A60AFB7280911151A2161AFCD47
:10196000EB193A58AFB72809111E1A2159AFCDDF2C
:10197000193A5CAFB72809111E1A215DAFCDDF19E6
:101980007AB32003110B1A1AFE54280CEBCD58170A
:10199000CDCC16CDF219181D3A51AFFE46280AEBF0
:1019A000CD5817CDCC16CDF219CD321F2813CD2727
:1019B0001FFE03200CAF3257AF676F2253AFC3C671
:1019C000003A57AFB7C2D6192A53AF2B2253AF7D77
:1019D000B42003C3C6002A42AF2255AFC3F103E5CA
:1019E0007E234E234602E1AF2B77C97E234E23464A
:1019F00002C92A42AF2278AFCD5708CD1C08217FFB
:101A0000AFCD58172A42AF2278AFC9525354203372
:101A100038480D0A00427265616B210D0A0054724C
:101A2000616365210D0A00F5C5D5E5DDE5E5DDE17C
:101A3000EBE521050019AF77EBE10101003E0ACD8E
:101A40005D1AF6301B120C7CB520F279FE062806D2
:101A5000DDE5E1EBEDB0DDE1E1D1C1F1C9C5D54F87
:101A6000060FAF291791380D292C1791380C292C06
:101A700010F8C37E1A29178138F42910F981D1C1D1
:101A8000C92247AFED5349AFAF324BAF324CAF3203
:101A90004DAF324EAF0610214BAFCB2623CB1621D4
:101AA00047AFCB2623CB16214DAFCB1623CB162A1F
:101AB00049AF5D542A4DAFAFED523002180B224DA5
:101AC000AF3A4BAFF601324BAF10CC2A4BAFED5BC8
:101AD0004DAFC9F5C5B71804CB21CB101F30F9099C
:101AE00020F6C1F1C93F203A436F6D6D616E6420ED
:101AF00048656C700D0A445B3C6164723E5D203A3F
:101B000044756D70204D656D6F72790D0A535B3CA5
:101B10006164723E5D203A536574204D656D6F724D
:101B2000790D0A525B3C7265673E5D203A536574DD
:101B3000206F722044756D702072656769737465DB
:101B4000720D0A475B3C6164723E5D5B2C3C7374B2
:101B50006F70206164723E5D203A476F20616E6451
:101B60002053746F700D0A4C203A4C6F616420480A
:101B7000657846696C650D0A505B497C535D203A77
:101B8000536176652048657846696C6528493A490D
:101B90006E74656C2C533A4D6F746F726F6C612963
:101BA0000D0A234C7C3C6E756D3E203A4C61756E7F
:101BB00063682070726F6772616D0D0A425B317CE1
:101BC000325B2C3C6164723E5D5D203A536574204B
:101BD0006F72204C69737420427265616B20506F84
:101BE000696E740D0A42435B317C325D203A436C6E
:101BF00065617220427265616B20506F696E740D71
:101C00000A545B3C6164723E5D5B2C3C737465708E
:101C1000733E7C2D315D203A2054726163652063F0
:101C20006F6D6D616E640D0A54505B4F4E7C4F4674
:101C3000465D203A5472616365205072696E74206B
:101C40004D6F64650D0A544D5B497C535D203A54D9
:101C500072616365204F7074696F6E20666F7220C9
:101C600043414C4C0D0A44495B3C6164723E5D5BF0
:101C70002C733C73746570733E7C3C6164723E5D92
:101C8000203A446973617373656D626C650D0A0077
:101C90000D0A454D555A3830204D4F4E49544F523C
:101CA000205265762E4230322E320D0A5468697306
:101CB000206D6F6E69746F72206973206261736545
:101CC00064206F6E20756E696D6F6E2E0D0A005D5B
:101CD00020004572726F7220696865780D0A0045B0
:101CE00072726F7220737265630D0A004572726FB3
:101CF000720D0A00203A00203A20003A303030308D
:101D00003030303146460D0A0053393033303030F0
:101D10003046430D0A006B1D2DAF016F1D2EAF0223
:101D2000751D30AF027B1D32AF02811D2CAF0186C5
:101D30001D3CAF028B1D3EAF02901D35AF01961DBD
:101D400036AF029C1D38AF02A21D3AAF02A81D3467
:101D5000AF01AD1D40AF02B21D42AF02B71D44AF8F
:101D600001BB1D45AF01000000000041203D0020E7
:101D70004243203D00204445203D0020484C203D6A
:101D8000002046203D002049583D002049593D0093
:101D90000D0A41273D00204243273D0020444527AE
:101DA0003D0020484C273D002046273D0020535051
:101DB0003D002050433D0020493D0020523D004160
:101DC0000F091E0000420F171E0000430F391E00AE
:101DD00000440F471E0000450F691E0000460F77A4
:101DE0001E0000480F851E0000490FB51E00004C64
:101DF0000FA71E0000500FC91E0000520145AF245E
:101E00001F530FD11E0000000000012DAFD91E2767
:101E10000135AFF21E000000012FAFDE1E27013793
:101E2000AFF91E430F2B1E0000000000022EAFDB97
:101E30001E270236AFF51E000000012EAFE01E2760
:101E40000136AFFC1E0000000131AFE51E2701394D
:101E5000AF031F450F5B1E00000000000230AFE221
:101E60001E270238AFFF1E0000000130AFE71E271B
:101E70000138AF061F000000012CAFF01E2701340F
:101E8000AF131F0000000133AFEC1E27013BAF0D65
:101E90001F4C0F991E00000000000232AFE91E2700
:101EA000023AAF091F0000000132AFEE1E27013ACF
:101EB000AF101F0000000144AF221F58023CAF16B4
:101EC0001F59023EAF191F0000430242AF1F1F00FF
:101ED00000500240AF1C1F0000410042430042007E
:101EE000430044450044004500484C0048004C0075
:101EF0004600412700424327004227004327004471
:101F0000452700442700452700484C270048270064
:101F10004C270046270049580049590053500050AB
:101F2000430049005200C93A01E0CB4728F93A0082
:101F3000E0C93A01E0CB47C9F53A01E0CB4F28F9B7
:101F4000F13200E0C9FFFFFFFFFFFFFFFFFFFFFFD0
:101F5000FFFFFFFFFFFFFFFFFFFFFFFFFFFFFFFF91
:101F6000FFFFFFFFFFFFFFFFFFFFFFFFFFFFFFFF81
:101F7000FFFFFFFFFFFFFFFFFFFFFFFFFFFFFFFF71
:101F8000FFFFFFFFFFFFFFFFFFFFFFFFFFFFFFFF61
:101F9000FFFFFFFFFFFFFFFFFFFFFFFFFFFFFFFF51
:101FA000FFFFFFFFFFFFFFFFFFFFFFFFFFFFFFFF41
:101FB000FFFFFFFFFFFFFFFFFFFFFFFFFFFFFFFF31
:101FC000FFFFFFFFFFFFFFFFFFFFFFFFFFFFFFFF21
:101FD000FFFFFFFFFFFFFFFFFFFFFFFFFFFFFFFF11
:101FE000FFFFFFFFFFFFFFFFFFFFFFFFFFFFFFFF01
:101FF000FFFFFFFFFFFFFFFFFFFFFFFFFFFFFFFFF1
:10200000C30620C37B20C30D20BC2832302145806D
:10201000F9C3473C11E52206632145801A77231353
:1020200005C21C20F9CDE624CDB22A32EF80323E23
:102030008121A281237CB5CA43207E472F77BE70C1
:10204000CA34202B11A181CD7C26DA842011CEFF49
:1020500022F48019229F80CDC1242A9F8011EFFF96
:1020600019113E817D936F7C9A67E5219C20CD50AC
:1020700031E1CDF337218D20CD503131AB80CDE62C
:1020800024C3FF2321D320CD5031C38A202042799D
:1020900074657320667265650D0A00005A38302039
:1020A00042415349432056657220342E37620D0A4F
:1020B000436F707972696768742028432920313929
:1020C0003738206279204D6963726F736F66740DC3
:1020D0000A00004D656D6F72792073697A65206E14
:1020E0006F7420656E6F7567680D0A54686520739C
:1020F000797374656D2069732073746F7070656493
:102100002E0D0A000068362C377E36488010309538
:10211000333E30F238D1390D354039463A4C3AAD7C
:102120003AC23AE9332C3B9680C232DA305C33D182
:1021300032E2324E3BE13BF23222332C33C54E4485
:10214000C64F52CE455854C4415441C94E505554BF
:10215000C4494DD2454144CC4554C74F544FD25544
:102160004EC946D24553544F5245C74F535542D29C
:10217000455455524ED2454DD3544F50CF5554CF60
:102180004ECE554C4CD7414954C44546D04F4B4593
:10219000C44F4B45D3435245454ECC494E4553C39E
:1021A0004C53D749445448CD4F4E49544F52D345D0
:1021B00054D245534554D052494E54C34F4E54CC3B
:1021C000495354C34C454152C34C4F4144C35341FE
:1021D0005645CE4557D4414228D44FC64ED35043DE
:1021E00028D448454ECE4F54D3544550ABADAAAF3A
:1021F000DEC14E44CF52BEBDBCD3474EC94E54C1C2
:102200004253D55352C65245C94E50D04F53D35165
:1022100052D24E44CC4F47C55850C34F53D3494E6A
:10222000D4414EC1544ED045454BC445454BD04F8B
:10223000494E54CC454ED3545224D6414CC15343FD
:10224000C3485224C8455824C2494E24CC4546545C
:1022500024D24947485424CD494424805428512746
:102260002C2CA129332B682E622BB8295E294129F9
:10227000302A1A284D297C29A3295228A133122A51
:102280009328A7334630F033373BA3291D3B113B3E
:10229000153B433C99809C80542A8028C626FB2805
:1022A000A329A329C02479DA37790E347C4C357CF4
:1022B000AD357FFB3850C12D46C02D4E46534E5292
:1022C000474F4446434F564F4D554C425344442F7D
:1022D000304944544D4F534C535354434E55464D3F
:1022E0004F4858424EC37B20C3D128D300C9D600E3
:1022F0006F7CDE006778DE00473E00C900000035D5
:102300004ACA99391C76982295B3980ADD479853A2
:10231000D199990A1A9F9865BCCD98D6773E985264
:10232000C74F80DB00C901FF1C000014001400002F
:10233000000000C3F925C30000C30000C30000A2D1
:1023400081FEFF3F81204572726F720020696E200E
:10235000004F6B0D0A0000427265616B00210400A2
:10236000397E23FE81C04E234623E569607AB3EBB4
:10237000CA7723EBCD7C26010D00E1C809C3612398
:10238000CD9A23C5E3C1CD7C267E02C80B2BC38624
:1023900023E52A1F81060009093EE53ED0956F3EE0
:1023A000FF9CDAA9236739E1D81E0CC3C8232A0E83
:1023B0008122A1801E02011E14011E00011E1201B5
:1023C0001E22011E0A011E18CDE624328A80CDA5E8
:1023D0002A21BB22573E3FCD8D26197ECD8D26CD9D
:1023E0000A28CD8D26214523CD50312AA18011FE0A
:1023F000FFCD7C26CA0D207CA53CC4EB373EC1AF87
:10240000328A80CDA52A215123CD503121FFFF22D0
:10241000A180CDF925DA0C24CD0A283C3DCA0C2434
:10242000F5CDD628D5CD102547D1F1D2EA27D5C58F
:10243000AF321181CD0A28B7F5CDA024DA4524F1B9
:10244000F5CA7729B7C5D25C24EB2A1B811A02038F
:1024500013CD7C26C24D246069221B81D1F1CA8331
:10246000242A1B81E3C109E5CD8023E1221B81EBF6
:1024700074D123237323722311A6801A772313B7F1
:10248000C27B24CDCC2423EB626B7E23B6CA0C2402
:10249000232323AFBE23C29424EB732372C3882467
:1024A0002AA380444D7E23B62BC823237E23666F48
:1024B000CD7C2660697E23666F3FC83FD0C3A324CE
:1024C000C02AA380AF77237723221B812AA3802BE6
:1024D0002213812AF480220881AFCD1A282A1B8179
:1024E000221D81221F81C12A9F80F921F88022F6B6
:1024F00080AF6F67221981321081222381E5C52ABE
:102500001381C93E3FCD8D263E20CD8D26C39380BD
:10251000AF32F3800E0511A6807EFE20CA982547B3
:10252000FE22CAB825B7CABF253AF380B77EC29843
:1025300025FE3F3E9ECA98257EFE30DA4325FE3CAE
:10254000DA9825D5113C21C5019425C5067F7EFE6C
:1025500061DA5C25FE7BD25C25E65F774EEB23B625
:10256000F25E25047EE67FC8B9C25E25EBE5131A4C
:10257000B7FA90254F78FE88C27F25CD0A282B23F5
:102580007EFE61DA8825E65FB9CA6E25E1C35C2567
:1025900048F1EBC9EB79C1D12312130CD63ACAA684
:1025A00025FE49C2A92532F380D654C21925477E9B
:1025B000B7CABF25B8CA982523120C13C3AF25216B
:1025C000A5801213121312C93A8980B73E003289CE
:1025D00080C2DC2505CAF925CD8D263E052BCAF023
:1025E000257ECD8D26C30226052BCD8D26C2022643
:1025F000CD8D26CDB22AC3F92521A6800601AF32A2
:102600008980CDB5264FFE7FCAC8253A8980B7CAD2
:102610001B263E00CD8D26AF32898079FE07CA5F2A
:1026200026FE03CCB22A37C8FE0DCAAD2AFE15CA53
:10263000F325FE40CAF025FE5FCAE825FE08CAE879
:1026400025FE12C25A26C5D5E53600CD563C21A638
:1026500080CD5031E1D1C1C30226FE20DA022678B6
:10266000FE493E07D2742679713211812304CD8D43
:1026700026C30226CD8D263E08C36E267C92C07DE1
:1026800093C97EE3BE23E3CA0A28C3B423F53A8A7A
:1026900080B7C28531F1C5F5FE20DAB1263A8780D0
:1026A000473AF08004CAAD2605B8CCB22A3C32F0D5
:1026B00080F1C1CFC9CD0F3BE67FFE0FC03A8A80C3
:1026C0002F328A80AFC9CDD628C0C1CDA024C5CDB8
:1026D0001C27E14E23462378B1CAFF23CD2527CD01
:1026E0003528C5CDB22A5E235623E5EBCDF3373E20
:1026F00020E1CD8D267EB723CAD226F2F226D67FE0
:102700004F113D211A13B7F204270DC20427E67FAB
:10271000CD8D261A13B7F20E27C3F526E52A8D8034
:10272000228B80E1C9E5D52A8B8011FFFFED5A226B
:102730008B80D1E1F0E52A8D80228B80CD0F3BFE8E
:1027400003CA4827E1C325272A8D80228B80C37EB8
:10275000203E64321081CDB829C1E5CDA129220CDB
:102760008121020039CD6123D1C2812709D52B56A1
:102770002B5E2323E52A0C81CD7C26E1C26527D17F
:10278000F9EB0E08CD9123E52A0C81E3E52AA1801F
:10279000E3CD7A2CCD8226A6CD772CE5CDA536E1EA
:1027A000C5D5010081515A7EFEAB3E01C2BD27CD89
:1027B0000A28CD772CE5CDA536CD5936E1C5D5F51E
:1027C00033E52A1381E30681C533CD3528221381F1
:1027D0007EFE3ACAEA27B7C2B423237E23B6CA5C78
:1027E00028235E2356EB22A180EBCD0A2811CA27AD
:1027F000D5C8D680DAB829FE25D2B423074F060003
:10280000EB215C22094E2346C5EB237EFE3AD0FE27
:1028100020CA0A28FE303F3C3DC9EB2AA380CA2FBC
:1028200028EBCDD628E5CDA0246069D1D277292B1D
:10283000222181EBC9DFC8D7FE1B2811FE03280D1A
:10284000FE13C0D7FE11C8FE03280718F63EFF325C
:102850009280C0F6C022138121F6FFC12AA180F523
:102860007DA43CCA6F282217812A1381221981AFC7
:10287000328A80CDA52AF1215723C2E823C3FF2342
:102880002A19817CB51E20CAC823EB2A178122A1F0
:1028900080EBC9CDD833C0328680C9E52A8F800647
:1028A000004F09228F80E1C97EFE41D8FE5B3FC9FF
:1028B000CD0A28CD772CCD5936FAD1283A2C81FE75
:1028C00090DA0137018090110000E5CDD436E15156
:1028D000C81E08C3C8232B110000CD0A28D0E5F577
:1028E000219819CD7C26DAB423626B19291929F1B4
:1028F000D6305F160019EBE1C3DA28CAD024CDB375
:10290000282BCD0A28E52AF480CA1E29E1CD82268B
:102910002CD5CDB3282BCD0A28C2B423E3EB7D936D
:102920005F7C9A57DAA923E52A1B8101280009CD8B
:102930007C26D2A923EB229F80E122F480E1C3D040
:1029400024CACC24CDD02401CA27C35D290E03CDCF
:102950009123C1E5E52AA180E33E8CF533C5CDD6B0
:1029600028CDA329E52AA180CD7C26E123DCA32460
:10297000D4A02460692BD81E0EC3C823C016FFCD77
:102980005D23F9FE8C1E04C2C823E122A180237CB2
:10299000B5C29B293A1181B7C2FE2321CA27E33E63
:1029A000E1013A0E0006007948477EB7C8B8C8234F
:1029B000FE22CAA729C3AA29CD6D2ECD8226B4D561
:1029C0003AF280F5CD892CF1E32213811FCD7C2CC6
:1029D000CA0B2AE52A2981E523235E23562AA380F0
:1029E000CD7C26D2FA292A9F80CD7C26D1D2022AFC
:1029F000210481CD7C26D2022A3ED1CDB132EBCD4D
:102A0000EA30CDB132E1CDB436E1C9E5CDB136D150
:102A1000E1C9CDD8337E47FE8CCA212ACD822688D3
:102A20002B4B0D78CAF227CDD728FE2CC0C3222A03
:102A3000CD892C7EFE88CA3E2ACD8226A92BCD7A4E
:102A40002CCD5936CAA329CD0A28DA5E29C3F1272D
:102A50002BCD0A28CAB22AC8FEA5CAE52AFEA8CAF2
:102A6000E52AE5FE2CCACE2AFE3BCA082BC1CD8939
:102A70002CE53AF280B7C29E2ACDFE37CD0E313614
:102A8000202A2981342A29813A87804704CA9A2A30
:102A9000043AF080863DB8D4B22ACD5331AFC45346
:102AA00031E1C3502A3AF080B7C8C3B22A360021B8
:102AB000A5803E0DCD8D263E0ACD8D26AF32F0800D
:102AC0003A86803DC8F5AFCD8D26F1C3C32A3A883A
:102AD00080473AF080B8D4B22AD2082BD60ED2DC86
:102AE0002A2FC3FD2AF5CDD533CD8226292BF1D649
:102AF000A8E5CAF82A3AF0802F83D2082B3C473E3B
:102B000020CD8D2605C2012BE1CD0A28C3572A3FCF
:102B10005265646F2066726F6D2073746172740DFC
:102B20000A003A1281B7C2AE23C1210F2BCD50311A
:102B3000C3FF24CDBB307EFE223E00328A80C24DD0
:102B40002BCD0F31CD82263BE5CD53313EE5CD0374
:102B500025C1DA5928237EB72BC5CAA029362CC334
:102B6000672BE52A2181F6AF321281E3C3732BCDA7
:102B700082262CCD6D2EE3D57EFE2CCA9B2B3A12DD
:102B800081B7C2082C3E3FCD8D26CD0325D1C1DAB9
:102B90005928237EB72BC5CAA029D53AF280B7CAD7
:102BA000C52BCD0A285747FE22CAB92B3A1281B746
:102BB00057CAB62B163A062C2BCD1231EB21D02B4F
:102BC000E3D5C3D329CD0A28CD6037E3CDB136E1B3
:102BD0002BCD0A28CADC2BFE2CC2222BE32BCD0ADC
:102BE00028C26F2BD13A1281B7EBC23028D5B6215B
:102BF000F72BC45031E1C93F457874726120696791
:102C00006E6F7265640D0A00CDA129B7C2212C2315
:102C10007E23B61E06CAC823235E2356EB220E81EE
:102C2000EBCD0A28FE83C2082CC39B2B110000C4E5
:102C30006D2E221381CD5D23C2BA23F9D57E23F5F3
:102C4000D5CD9736E3E5CD0434E1CDB136E1CDA85D
:102C500036E5CDD436E1C190CDA836CA672CEB223B
:102C6000A1806960C3C627F92A13817EFE2CC2CADF
:102C700027CD0A28CD2F2CCD892CF6373AF2808F1C
:102C8000B7E8C3C623CD8226282B1600D50E01CD6A
:102C90009123CD002D2215812A1581C178FE78D48B
:102CA0007A2C7E1600D6B3DAC12CFE03D2C12CFEDC
:102CB0000117AABA57DAB423220A81CD0A28C3A57C
:102CC0002C7AB7C2E82D7E220A81D6ACD8FE07D076
:102CD0005F3AF2803DB37BCA463207835F21A6226A
:102CE000197856BAD023CD7A2CC501982CC5434A01
:102CF000CD8A3658514E234623C52A0A81C38C2CCF
:102D0000AF32F280CD0A281E24CAC823DA6037CD3C
:102D1000A828D2672DFE262012CD0A28FE48CAA375
:102D20003BFE42CA133C1E02CAC823FEACCA002D99
:102D3000FE2ECA6037FEADCA562DFE22CA0F31FEE6
:102D4000AACA482EFEA7CA7330D6B6D2782DCD8532
:102D50002CCD822629C9167DCD8C2C2A1581E5CD56
:102D60008236CD7A2CE1C9CD6D2EE5EB2229813A50
:102D7000F280B7CC9736E1C90600074FC5CD0A28C7
:102D800079FE31DA9F2DCD852CCD82262CCD7B2C62
:102D9000EB2A2981E3E5EBCDD833EBE3C3A72DCDB7
:102DA0004E2DE311622DD5010521094E236669E9F7
:102DB00015FEADC8FE2DC814FE2BC8FEACC82BC92D
:102DC000F6AFF5CD7A2CCDBC28F1EBC1E3EBCD9A73
:102DD00036F5CDBC28F1C179213130C2E32DA34FA6
:102DE00078A2E9B34F78B2E921FA2D3AF2801F7A3E
:102DF000175F166478BAD0C3E92CFC2D79B71FC1D0
:102E0000D1F5CD7C2C213E2EE5CAD436AF32F280EE
:102E1000D5CD93327E23234E2346D1C5F5CD9732AF
:102E2000CDA836F157E17BB2C87AD601D8AFBB3C0A
:102E3000D0151D0ABE2303CA262E3FC364363C8F1D
:102E4000C1A0C6FF9FC36B36165ACD8C2CCD7A2CF1
:102E5000CDBC287B2F4F7A2FCD3130C1C3982C2B7E
:102E6000CD0A28C8CD82262C015F2EC5F6AF32F1DF
:102E70008046CDA828DAB423AF4F32F280CD0A289D
:102E8000DA892ECDA828DA962E4FCD0A28DA8A2E96
:102E9000CDA828D28A2ED624C2A52E3C32F2800F8D
:102EA000814FCD0A283A10813DCA522FF2B52E7EAD
:102EB000D628CA2A2FAF321081E550592A2381CD56
:102EC0007C26112581CA9A352A1D81EB2A1B81CDCA
:102ED0007C26CAE82E799623C2DD2E789623CA1C5A
:102EE0002F23232323C3CF2EE1E3D5116A2DCD7CDD
:102EF00026D1CA1F2FE3E5C50106002A1F81E50977
:102F0000C1E5CD8023E1221F816069221D812B361E
:102F100000CD7C26C20E2FD173237223EBE1C93280
:102F20002C81215023222981E1C9E52AF180E35730
:102F3000D5C5CDB028C1F1EBE3E5EB3C577EFE2CC7
:102F4000CA302FCD822629221581E122F1801E0070
:102F5000D511E5F52A1D813E19EB2A1F81EBCD7CA9
:102F600026CA8A2F7EB923C26C2F7EB8235E2356D1
:102F700023C2582F3AF180B7C2BD23F1444DCA9AFB
:102F80003596CAE82F1E10C3C823110400F1CAD118
:102F900028712370234FCD91232323220A8171238B
:102FA0003AF1801779010B00D2AD2FC10371237064
:102FB00023F5E5CD4537EBE1F13DC2A52FF5424BB9
:102FC000EB19DAA923CD9A23221F812B3600CD7C61
:102FD00026C2CB2F03572A0A815EEB2909EB2B2B44
:102FE00073237223F1DA0C30474F7E2316E15E2300
:102FF0005623E3F5CD7C26D2852FE5CD4537D11973
:10300000F13D444DC2ED2F2929C109EB2A1581C993
:103010002A1F81EB210000393AF280B7CA2C30CD4B
:103020009332CD93312A9F80EB2A08817D934F7C88
:103030009A41501E0021F280730690C370363AF018
:103040008047AFC33230CDC930CDBB3001A129C5D7
:10305000D5CD822628CD6D2EE5EB2B562B5EE1CD0E
:103060007A2CCD822629CD8226B4444DE37123707B
:10307000C30831CDC930D5CD4E2DCD7A2CE35E239A
:1030800056237AB3CAC0237E23666FE52A2381E3E1
:103090002223812A2781E52A2581E5212581D5CD95
:1030A000B136E1CD772C2BCD0A28C2B423E12225FD
:1030B00081E1222781E1222381E1C9E52AA1802340
:1030C0007CB5E1C01E16C3C823CD8226A73E803240
:1030D0001081B647CD722EC37A2CCD7A2CCDFE3717
:1030E000CD0E31CD933201EE32C57E2323E5CD697D
:1030F00031E14E2346CD0231E56FCD8632D1C9CDC7
:103100006931210481E5772323732372E1C92B06FA
:103110002250E50EFF237E0CB7CA2431BACA2431EF
:10312000B8C21531FE22CC0A28E323EB79CD023157
:103130001104812AF6802229813E0132F280CDB429
:1031400036CD7C2622F680E17EC01E1EC3C8232316
:10315000CD0E31CD9332CDA8361C1DC80ACD8D269B
:10316000FE0DCCBC2A03C35A31B70EF1F52A9F805D
:10317000EB2A08812F4F06FF0923CD7C26DA873101
:1031800022088123EBF1C9F11E1ACAC823BFF50139
:103190006B31C52AF480220881210000E52A9F8036
:1031A000E521F880EB2AF680EBCD7C2601A431C224
:1031B000F8312A1B81EB2A1D81EBCD7C26CACB314D
:1031C0007E2323B7CDFB31C3B531C1EB2A1F81EB81
:1031D000CD7C26CA2132CDA8367BE509B7F2CA31AB
:1031E000220A81E14E0600090923EB2A0A81EBCD70
:1031F0007C26CACB3101EA31C5F6807E23235E23CB
:103200005623F0B7C8444D2A0881CD7C266069D882
:10321000E1E3CD7C26E3E56069D0C1F1F1E5D5C5F8
:10322000C9D1E17DB4C82B462B4EE52B2B6E260071
:103230000950592B444D2A0881CD8323E171237015
:1032400069602BC39631C5E52A2981E3CD002DE3C2
:10325000CD7B2C7EE52A2981E5861E1CDAC823CD8C
:10326000FF30D1CD9732E3CD9632E52A0681EBCD02
:103270007D32CD7D3221952CE3E5C33031E1E37E13
:1032800023234E23466F2C2DC80A120313C3873203
:10329000CD7B2C2A2981EBCDB132EBC0D550591B07
:1032A0004E2A0881CD7C26C2AF324709220881E12F
:1032B000C92AF6802B462B4E2B2BCD7C26C022F61E
:1032C00080C9014130C5CD9032AF5732F2807EB710
:1032D000C9014130C5CDC632CAD12823235E235649
:1032E0001AC93E01CDFF30CDDB332A068173C1C33D
:1032F0003031CD8B33AFE34FE57EB8DA0033781150
:103300000E00C5CD6931C1E1E52323462366680679
:103310000009444DCD02316FCD8632D1CD9732C3F5
:103320003031CD8B33D1D51A90C3F632EB7ECD90B0
:10333000330405CAD128C51EFFFE29CA4533CD82F4
:10334000262CCDD833CD822629F1E301F832C53DB4
:10335000BE0600D04F7E91BB47D843C9CDC632CA06
:1033600079345F23237E23666FE5194672E3C57EB9
:10337000FE24C27A33CDA33B180DFE25C28433CD83
:10338000133C1803CD6037C1E170C9EBCD8226290B
:10339000C1D1C543C9CDDB33328480CD8380C341E5
:1033A00030CDC533C34B80CDC533F51E002BCD0AC0
:1033B00028CABB33CD82262CCDD833C1CD8380AB78
:1033C000A0CABC33C9CDD833328480324C80CD8280
:1033D000262CC3D833CD0A28CD772CCDB6287AB782
:1033E000C2D1282BCD0A287BC9CDBC281AC34130B5
:1033F000CD772CCDBC28D5CD82262CCDD833D1127B
:10340000C921D738CDA836C31334CDA83621C1D1B0
:10341000CD823678B7C83A2C81B7CA9A3690D22D69
:10342000342F3CEBCD8A36EBCD9A36C1D1FE19D084
:10343000F5CDBF3667F1CDD834B4212981F25334AC
:10344000CDB834D299342334CAC3232E01CDEE34FF
:10345000C39934AF90477E9B5F237E9A57237E9912
:103460004FDCC4346863AF4779B7C286344A5465C9
:103470006F78D608FEE0C26734AF322C81C90529C7
:103480007A1757798F4FF27E34785C45B7CA9934F2
:10349000212C818677D27934C878212C81B7FCAB76
:1034A0003446237EE680A94FC39A361CC014C00C54
:1034B000C00E8034C0C3C3237E835F237E8A57231C
:1034C0007E894FC9212D817E2F77AF6F90477D9BDD
:1034D0005F7D9A577D994FC90600D608DAE73443D5
:1034E0005A510E00C3DA34C6096FAF2DC8791F4F89
:1034F0007A1F577B1F5F781F47C3EA3400000081A3
:1035000003AA561980F122768045AA3882CD593611
:10351000B7EAD128212C817E01358011F30490F582
:1035200070D5C5CD1334C1D104CDAF3521FC34CD18
:103530000A34210035CDA139018080110000CD135E
:1035400034F1CDD43701318011187221C1D1CD5958
:1035500036C82E00CD173679323B81EB223C8101F3
:1035600000005058216434E5217035E5E5212981BA
:103570007E23B7CA9C35E52E081F6779D28A35E5C8
:103580002A3C8119EBE13A3B81891F4F7A1F577B17
:103590001F5F781F472D7CC27935E1C9435A514FCF
:1035A000C9CD8A36012084110000CD9A36C1D1CD13
:1035B0005936CAB7232EFFCD173634342B7E3257F7
:1035C000802B7E3253802B7E324F8041EBAF4F57A2
:1035D0005F325A80E5C57DCD4E80DE003FD2E735B3
:1035E000325A80F1F137D2C1E1793C3D1FFA9A3469
:1035F000177B175F7A175779174F297817473A5A69
:103600008017325A8079B2B3C2D435E5212C813586
:10361000E1C2D435C3C32378B7CA3B367D212C81A0
:10362000AE80471FA878F23A36C68077CA9A35CD61
:10363000BF36772BC9CD59362FE1B7E1F27934C3C4
:10364000C323CDA53678B7C8C602DAC32347CD1346
:1036500034212C8134C0C3C3233A2C81B7C83A2B00
:1036600081FE2F179FC03CC9CD5936068811000036
:10367000212C814F70060023368017C36134CD5949
:1036800036F0212B817EEE8077C9EB2A2981E3E594
:103690002A2B81E3E5EBC9CDA836EB2229816069AD
:1036A000222B81EBC92129815E2356234E234623F9
:1036B000C911298106041A77132305C2B636C92118
:1036C0002B817E07371F773F1F2323777907371F0B
:1036D0004F1FAEC978B7CA5936216236E5CD593683
:1036E00079C8212B81AE79F8CDEE361FA9C9237890
:1036F000BEC02B79BEC02B7ABEC02B7B96C0E1E149
:10370000C9474F575FB7C8E5CDA536CDBF36AE67C1
:10371000FC25373E9890CDD8347C17DCAB340600BE
:10372000DCC434E1C91B7AA33CC00BC9212C817EC7
:10373000FE983A2981D07ECD013736987BF57917EE
:10374000CD6134F1C921000078B1C83E1029DA8575
:103750002FEB29EBD25B3709DA852F3DC24D37C9F4
:10376000FE2DF5CA6C37FE2BCA6C372BCD7934474A
:10377000575F2F4FCD0A28DABD37FE2ECA9837FE85
:1037800045C29C37CD0A28CDB02DCD0A28DADF37C7
:1037900014C29C37AF935F0C0CCA7437E57B90F46E
:1037A000B537F2AB37F5CDA135F13CC29F37D1F13A
:1037B000CC8236EBC9C8F5CD4236F13DC9D5577834
:1037C0008947C5E5D5CD4236F1D630CDD437E1C1F4
:1037D000D1C37437CD8A36CD6B36C1D1C313347B98
:1037E0000707830786D6305FC38A37E5214C23CD90
:1037F0005031E1EBAF0698CD7036214F31E5212EE7
:1038000081E5CD59363620F20C38362D233630CAB4
:10381000C238E5FC8236AFF5CDC83801439111F8C6
:103820004FCDD436B7E23938F1CDB637F5C31B38B2
:10383000CDA135F13CF5CDC838CD01343CCD0137B3
:10384000CD9A36010603F1813CFA5538FE08D2556F
:10385000383C473E023D3DE1F511DB3805C2663894
:10386000362E2336302305362ECCAF36C5E5D5CDE2
:10387000A536E1062F047B965F237A9E5723799E17
:103880004F2B2BD27538CDB83423CD9A36EBE1705F
:1038900023C10DC2663805CAA6382B7EFE30CA9AEF
:1038A00038FE2EC4AF36F1CAC538364523362BF262
:1038B000B638362D2F3C062F04D60AD2B838C63A71
:1038C000237023772371E1C901749411F723CDD4B8
:1038D00036B7E1E23038E900000080A08601102709
:1038E00000E803006400000A0000010000218236A5
:1038F000E3E9CD8A3621D738CD9736C1D1CD5936B7
:1039000078CA4039F20B39B7CAB723B7CA7A34D567
:10391000C579F67FCDA536F22839D5C5CD2C37C16E
:10392000D1F5CDD436E17C1FE1222B81E122298122
:10393000DCED38CC8236D5C5CD0D35C1D1CD4E3577
:10394000CD8A36013881113BAACD4E353A2C81FE05
:1039500088D23536CD2C37C680C602DA3536F52109
:10396000FC34CD0434CD4535F1C1D1F5CD1034CD85
:103970008236218039CDB039110000C14AC34E359D
:1039800008402E9474704F2E776E02887AE6A02A33
:103990007C50AAAA7EFFFF7F7F000080810000008C
:1039A00081CD8A36114C35D5E5CDA536CD4E35E1E4
:1039B000CD8A367E23CD973606F1C1D13DC8D5C517
:1039C000F5E5CD4E35E1CDA836E5CD1334E1C3B9EB
:1039D00039CD5936215E80FA323A217F80CD973633
:1039E000215E80C886E6070600772387874F09CDCA
:1039F000A836CD4E353A5D803CE6030600FE0188D0
:103A0000325D8021363A87874F09CD0434CDA53603
:103A10007B59EE4F4F36802B463680215C80347EBA
:103A2000D6ABC2293A770C151CCD6434217F80C3F4
:103A3000B136772B772B77C30D3A68B1466899E991
:103A4000926910D1756821903ACD0434CD8A36013F
:103A5000498311DB0FCD9A36C1D1CDAF35CD8A3632
:103A6000CD2C37C1D1CD103421943ACD0A34CD5963
:103A70003637F27C3ACD0134CD5936B7F5F482367B
:103A800021943ACD0434F1D4823621983AC3A13935
:103A9000DB0F49810000007F05BAD71E8664269996
:103AA0008758342387E05DA586DA0F4983CD8A36AF
:103AB000CD4C3AC1E1CD8A36EBCD9A36CD463AC3EC
:103AC000AD35CD5936FCED38FC82363A2C81FE817D
:103AD000DADF3A0100815159CDAF35210A34E521B1
:103AE000E93ACDA13921903AC9094AD73B78026E0B
:103AF000847BFEC12F7C74319A7D843D5A7DC87FC2
:103B0000917EE4BB4C7E6CAAAA7F00000081C9D7DD
:103B1000C93E0CCFC9CDD8337B328780C9CD772C35
:103B2000CDBC28ED538B80ED538D80C9CDBC28D5FD
:103B3000E146237EC33230CD772CCDBC28D5CD8253
:103B4000262CCD772CCDBC28E3732372E1C9CD7A26
:103B50002CCDBC28C5212E817AFE00280CCD863BB9
:103B600078FE302802702371237BCD863B7AFE00DD
:103B7000200578FE30280270237123AF772377C1A8
:103B8000212E81C3E03047E60FFE0A3802C607C681
:103B9000304F780F0F0F0FE60FFE0A3802C607C628
:103BA0003047C9EB210000CDBC3BDADC3B1805CD2A
:103BB000BC3B381F29292929B56F18F3131AFE2099
:103BC000CABC3BD630D8FE0A3805D607FE0AD8FE56
:103BD000103FC9EB7A4BE5CD3130E1C91E26C3C891
:103BE00023CD7A2CCDBC28C5212E8106110578FE67
:103BF000012808CB13CB1230F41804CB13CB123EA0
:103C000030CE0077230520F3AF772377C1212E81B3
:103C1000C3E030EB210000CD303CDA3E3CD6302909
:103C2000B56FCD303C30F6EB7A4BE5CD3130E1C9A4
:103C3000131AFE20CA303CFE30D8FE323FC91E287F
:103C4000C3C8230E01F7C93E00329280C31420F589
:103C5000A0C1B83E00C9CD8D26C3B22AFFFFFFFF29
:103C6000FFFFFFFFFFFFFFFFFFFFFFFFFFFFFFFF64
:103C7000FFFFFFFFFFFFFFFFFFFFFFFFFFFFFFFF54
:103C8000FFFFFFFFFFFFFFFFFFFFFFFFFFFFFFFF44
:103C9000FFFFFFFFFFFFFFFFFFFFFFFFFFFFFFFF34
:10800000D4EFC1F0040EC26E000EC16E100EBE6E33
:10801000000EBF6E000EC06E010ECA6EA70EC66EB9
:10802000C768C868C968000E0401186F000E106F99
:10803000000E086F000E206F000E006F1969010E10
:10804000216F0969270E016F1169000E226F000E62
:10805000026F000E0A6F000E126F000E1A6F036996
:108060000B6913691B69070E236F04690C69146996
:108070001C690F0E246F1C0E0201686F020E056F43
:10808000010E616F1D0E676F1E0E646F3F0E046F51
:10809000050E656F260E076F1F0E636F020E626F6F
:0680A000070E766F1200CE
:1080A800D8C40AF5A892B992D1C40FF5CFC40EF579
:1080B800CEBA1FD0000EC86E0E0407E1E00E0F18EE
:1080C800D8A403D0B7C4C0F409D0E00E0F180E101E
:1080D800D8A403D0C7C2C0F401D0C068050E0001FF
:1080E800D56FD785D795000ED56FCEA2FED7C868B5
:1080F80012D0C868D2A002D0D2B0FED7E00E0F18B6
:108108000E10D8B4D0C4C9F2050E0001D56FD785BA
:10811800D795000ED56FA8820AC5D8F41100000EB5
:108128000201CB6F000ECD6F000ECF6FB00ED16F76
:10813800800ED26F000ED36F400ED46F030ED56F32
:10814800000ED66F000ED76F000ED86F000ED96FD5
:10815800000E0B6E000E0C6E000E0D6E25ECC2F0BC
:10816800000E0B6E000E0C6E000E0D6E1EECC2F0B3
:10817800000E0B6E000E0C6E000E0D6E2CECC2F095
:10818800000E106E1200D68A000ED6BE010E0B6EBF
:10819800D69E550E0401596FAA0E596F5991000EBB
:1081A8005F6F000E5E6F080E5D6F550E596FAA0E59
:1081B800596F59810BB002D0D69E01D0D68E0301DB
:1081C8006D936C83120070ECC1F0D68ED68C000EC5
:1081D800E06E010EF86E000E0001D56FC868C2820D
:1081E800C868D4B1FED7CF50F66ED150F76E0800EC
:1081F800C86AF550D785C06ED795F2D700EFC0F0A2
:10820800B892D585CEBA0DD0C86ACFC4D9F4D150AA
:10821800070FDA6ED785DF50C06ED795D56BC86863
:108228001100CFC4D9F4D150070FDA6ED785D050DA
:10823800DF6ED795D56B1100050ED56F820ED76FFF
:10824800000ED86F010ED96F350EDA6F360EDB6F60
:10825800010EDC6FA40EDD6F000EDE6F000EDF6F07
:10826800000ED46F8C0ED66FB992A9821200040E3C
:10827800D56F820ED76F000ED86F010ED96F360EEC
:10828800DA6F000EDB6F010EDC6F140EDD6F000E6F
:10829800DE6F000EDF6F000ED46F8C0ED66FB892B3
:1082A800A8821200020E0001D56F0E0ED76F020EC3
:1082B800D86F000ED96F000EDA6F000EDB6F010E5B
:1082C800DC6F000EDD6F000EDE6F000EDF6F000E3C
:1082D800D46F820ED66F1200C7ECC0F0EBECC1F081
:1082E80002ECC0F012ECC2F0BBECC1F089ECC1F0BA
:1082F8003BECC1F020ECC1F0FFECC1F056ECC1F052
:10830800A2ECC1F093ECC0F01200030ED56F080E7A
:10831800D76F020ED86F030ED96F060EDA6F070EED
:10832800DB6F020EDC6F040EDD6F500EDE6F000E89
:10833800DF6F000ED46F820ED66F1200010ED56F5C
:10834800080ED76F330ED86F370ED96F380EDA6F25
:10835800000EDB6F020EDC6F080EDD6F200EDE6F85
:10836800000EDF6F000ED46F820ED66F1200000E63
:10837800D56F830ED76F000ED86F010ED96F350EEB
:10838800DA6F040EDB6F820EDC6F140EDD6F000EE9
:10839800DE6F000EDF6F000ED46F8C0ED66F1200EA
:1083A800106A0F6A0E6A01EE00F31CEE00F0EE6A26
:1083B800E550E150FCE1E250FAE10401080E5D6F7E
:1083C800000E5E6F000E5F6F0001E7EFC0F0000E59
:1083D8000001606F000E616F000E626F000E636F28
:1083E800000E646F000E656F000E666F000E676FFB
:1083F800000E686F1200000E0401466F000E476FF2
:10840800000E426F000E416F000E406F030E456F65
:10841800000E446F000E436F468F1200600E00017D
:10842800AD6F000EAF6F000EB36F080EB16F000E88
:10843800B06F12000BC504F50CC505F50DC506F5A2
:1084480012000BC507F50CC508F50DC509F5120096
:0E8458000BC501F50CC502F50DC503F51200AC
:02846800110001
:020000040020DA
:10000000FF0FFF0FFF0FFF0FFF0FFF0FFF0FFF0F80
:10001000FF0FFF0FFF0FFF0FFF0FFF0FFF0FFF0F70
:10002000FF0FFF0FFF0FFF0FFF0FFF0FFF0FFF0F60
:10003000FF0FFF0FFF0FFF0FFF0FFF0FFF0FFF0F50
:020000040030CA
:100000008CEFFFFF9FFFFFFFFFFFFFFFFFFFFFFFE3
:10001000FFFFFFFFFFFFFFFFFFFFFFFFFFFFFFFFF0
:04002000FFFFFFFFE0
:00000001FF
